{
  "_format": "hh-sol-artifact-1",
  "contractName": "Counter",
  "sourceName": "contracts/Counter.sol",
  "abi": [
    {
      "inputs": [],
      "name": "count",
      "outputs": [
        {
          "internalType": "uint256",
          "name": "",
          "type": "uint256"
        }
      ],
      "stateMutability": "view",
      "type": "function"
    },
    {
      "inputs": [
        {
          "internalType": "uint256",
          "name": "",
          "type": "uint256"
        }
      ],
      "name": "countToCaller",
      "outputs": [
        {
          "internalType": "address",
          "name": "",
          "type": "address"
        }
      ],
      "stateMutability": "view",
      "type": "function"
    },
    {
      "inputs": [
        {
          "internalType": "uint256",
          "name": "_count",
          "type": "uint256"
        }
      ],
      "name": "getCallerByCount",
      "outputs": [
        {
          "internalType": "address",
          "name": "",
          "type": "address"
        }
      ],
      "stateMutability": "view",
      "type": "function"
    },
    {
      "inputs": [],
      "name": "increment",
      "outputs": [],
      "stateMutability": "nonpayable",
      "type": "function"
    }
  ],
  "bytecode": "0x608060405234801561001057600080fd5b506101e9806100206000396000f3fe608060405234801561001057600080fd5b506004361061004c5760003560e01c806306661abd146100515780631c9878ec1461006d578063d09de08a146100c8578063e3d5aa0f146100d2575b600080fd5b61005a60005481565b6040519081526020015b60405180910390f35b6100a361007b36600461015a565b60009081526001602052604090205473ffffffffffffffffffffffffffffffffffffffff1690565b60405173ffffffffffffffffffffffffffffffffffffffff9091168152602001610064565b6100d0610108565b005b6100a36100e036600461015a565b60016020526000908152604090205473ffffffffffffffffffffffffffffffffffffffff1681565b600080548152600160208190526040822080547fffffffffffffffffffffffff0000000000000000000000000000000000000000163317905581549091908190610153908490610173565b9091555050565b60006020828403121561016c57600080fd5b5035919050565b808201808211156101ad577f4e487b7100000000000000000000000000000000000000000000000000000000600052601160045260246000fd5b9291505056fea2646970667358221220173f8036b6a1ad97c992531522106c93bb4b93754b5253a0436a71b17b27ddfe64736f6c63430008180033",
  "linkReferences": {},
  "deployedLinkReferences": {}
}