{
  "_format": "hh-sol-artifact-1",
  "contractName": "TicketManager",
  "sourceName": "contracts/TicketManager.sol",
  "abi": [
    {
      "anonymous": false,
      "inputs": [
        {
          "indexed": true,
          "internalType": "address",
          "name": "user",
          "type": "address"
        },
        {
          "indexed": false,
          "internalType": "uint256",
          "name": "amount",
          "type": "uint256"
        },
        {
          "indexed": false,
          "internalType": "bytes32",
          "name": "ticketHash",
          "type": "bytes32"
        }
      ],
      "name": "DepositTicketAdded",
      "type": "event"
    },
    {
      "anonymous": false,
      "inputs": [
        {
          "indexed": true,
          "internalType": "address",
          "name": "user",
          "type": "address"
        },
        {
          "indexed": false,
          "internalType": "uint256",
          "name": "amount",
          "type": "uint256"
        },
        {
          "indexed": false,
          "internalType": "bytes32",
          "name": "ticketHash",
          "type": "bytes32"
        }
      ],
      "name": "WithdrawTicketAdded",
      "type": "event"
    },
    {
      "inputs": [
        {
          "internalType": "address",
          "name": "user",
          "type": "address"
        },
        {
          "internalType": "uint256",
          "name": "amount",
          "type": "uint256"
        }
      ],
      "name": "addDepositTicket",
      "outputs": [],
      "stateMutability": "payable",
      "type": "function"
    },
    {
      "inputs": [
        {
          "internalType": "address",
          "name": "user",
          "type": "address"
        },
        {
          "internalType": "uint256",
          "name": "amount",
          "type": "uint256"
        }
      ],
      "name": "addWithdrawTicket",
      "outputs": [],
      "stateMutability": "nonpayable",
      "type": "function"
    },
    {
      "inputs": [
        {
          "internalType": "bytes32",
          "name": "",
          "type": "bytes32"
        }
      ],
      "name": "depositTickets",
      "outputs": [
        {
          "internalType": "bool",
          "name": "",
          "type": "bool"
        }
      ],
      "stateMutability": "view",
      "type": "function"
    },
    {
      "inputs": [
        {
          "internalType": "bytes32",
          "name": "",
          "type": "bytes32"
        }
      ],
      "name": "withdrawTickets",
      "outputs": [
        {
          "internalType": "bool",
          "name": "",
          "type": "bool"
        }
      ],
      "stateMutability": "view",
      "type": "function"
    }
  ],
  "bytecode": "0x608060405234801561001057600080fd5b506103b6806100206000396000f3fe60806040526004361061003f5760003560e01c8063a6e79d9b14610044578063afc8d53214610088578063cd9ae171146100aa578063d384c382146100bd575b600080fd5b34801561005057600080fd5b5061007461005f36600461032f565b60016020526000908152604090205460ff1681565b604051901515815260200160405180910390f35b34801561009457600080fd5b506100a86100a3366004610348565b6100ed565b005b6100a86100b8366004610348565b6101ef565b3480156100c957600080fd5b506100746100d836600461032f565b60006020819052908152604090205460ff1681565b6001600160a01b0382166101485760405162461bcd60e51b815260206004820152600f60248201527f496e76616c69642061646472657373000000000000000000000000000000000060448201526064015b60405180910390fd5b6040516bffffffffffffffffffffffff19606084901b1660208201526034810182905242605482015260009060740160408051808303601f1901815282825280516020918201206000818152600180845290849020805460ff1916909117905585845290830181905292506001600160a01b038516917fda61a45ef00745312054469c1306aaa73af892c6deab9864b9f4120d0b1dbbd091015b60405180910390a2505050565b80341461023e5760405162461bcd60e51b815260206004820152601960248201527f496e636f72726563742045544820616d6f756e742073656e7400000000000000604482015260640161013f565b6001600160a01b0382166102945760405162461bcd60e51b815260206004820152600f60248201527f496e76616c696420616464726573730000000000000000000000000000000000604482015260640161013f565b6040516bffffffffffffffffffffffff19606084901b1660208201526034810182905242605482015260009060740160408051601f1981840301815282825280516020918201206000818152808352839020805460ff1916600117905585845290830181905292506001600160a01b038516917fb7d977e3e2b5a3c25f0f66c6667442489062e51dc4c87fa23fa051e6be4920ae91016101e2565b60006020828403121561034157600080fd5b5035919050565b6000806040838503121561035b57600080fd5b82356001600160a01b038116811461037257600080fd5b94602093909301359350505056fea2646970667358221220a676a0103dd2665c6937cea1210b266a1036a738d2284e67a0bf16552e0633b464736f6c63430008180033",
  "linkReferences": {},
  "deployedLinkReferences": {}
}